{
	"contracts/swap.sol": {
		"Swap": {
			"abi": [
				{
					"inputs": [],
					"name": "getA",
					"outputs": [
						{
							"internalType": "uint256",
							"name": "",
							"type": "uint256"
						}
					],
					"stateMutability": "view",
					"type": "function"
				},
				{
					"inputs": [],
					"name": "getB",
					"outputs": [
						{
							"internalType": "uint256",
							"name": "",
							"type": "uint256"
						}
					],
					"stateMutability": "view",
					"type": "function"
				},
				{
					"inputs": [],
					"name": "swap",
					"outputs": [],
					"stateMutability": "nonpayable",
					"type": "function"
				}
			],
			"devdoc": {
				"kind": "dev",
				"methods": {},
				"version": 1
			},
			"evm": {
				"assembly": "    /* \"contracts/swap.sol\":66:405  contract Swap {... */\n  mstore(0x40, 0x80)\n    /* \"contracts/swap.sol\":95:96  3 */\n  0x03\n    /* \"contracts/swap.sol\":85:96  uint256 a=3 */\n  0x00\n  sstore\n    /* \"contracts/swap.sol\":111:112  4 */\n  0x04\n    /* \"contracts/swap.sol\":101:112  uint256 b=4 */\n  0x01\n  sstore\n    /* \"contracts/swap.sol\":66:405  contract Swap {... */\n  callvalue\n  dup1\n  iszero\n  tag_1\n  jumpi\n  0x00\n  dup1\n  revert\ntag_1:\n  pop\n  dataSize(sub_0)\n  dup1\n  dataOffset(sub_0)\n  0x00\n  codecopy\n  0x00\n  return\nstop\n\nsub_0: assembly {\n        /* \"contracts/swap.sol\":66:405  contract Swap {... */\n      mstore(0x40, 0x80)\n      callvalue\n      dup1\n      iszero\n      tag_1\n      jumpi\n      0x00\n      dup1\n      revert\n    tag_1:\n      pop\n      jumpi(tag_2, lt(calldatasize, 0x04))\n      shr(0xe0, calldataload(0x00))\n      dup1\n      0x8119c065\n      eq\n      tag_3\n      jumpi\n      dup1\n      0xa1c51915\n      eq\n      tag_4\n      jumpi\n      dup1\n      0xd46300fd\n      eq\n      tag_5\n      jumpi\n    tag_2:\n      0x00\n      dup1\n      revert\n        /* \"contracts/swap.sol\":205:256  function swap() public {... */\n    tag_3:\n      tag_6\n      tag_7\n      jump\t// in\n    tag_6:\n      stop\n        /* \"contracts/swap.sol\":335:402  function getB() public view returns (uint256) {... */\n    tag_4:\n      tag_8\n      tag_9\n      jump\t// in\n    tag_8:\n      mload(0x40)\n      tag_10\n      swap2\n      swap1\n      tag_11\n      jump\t// in\n    tag_10:\n      mload(0x40)\n      dup1\n      swap2\n      sub\n      swap1\n      return\n        /* \"contracts/swap.sol\":262:329  function getA() public view returns (uint256) {... */\n    tag_5:\n      tag_12\n      tag_13\n      jump\t// in\n    tag_12:\n      mload(0x40)\n      tag_14\n      swap2\n      swap1\n      tag_11\n      jump\t// in\n    tag_14:\n      mload(0x40)\n      dup1\n      swap2\n      sub\n      swap1\n      return\n        /* \"contracts/swap.sol\":205:256  function swap() public {... */\n    tag_7:\n        /* \"contracts/swap.sol\":245:246  b */\n      sload(0x01)\n        /* \"contracts/swap.sol\":248:249  a */\n      sload(0x00)\n        /* \"contracts/swap.sol\":236:237  a */\n      0x00\n      dup1\n        /* \"contracts/swap.sol\":239:240  b */\n      0x01\n      0x00\n        /* \"contracts/swap.sol\":235:250  (a, b) = (b, a) */\n      dup5\n      swap2\n      swap1\n      pop\n      sstore\n      dup4\n      swap2\n      swap1\n      pop\n      sstore\n      pop\n      pop\n        /* \"contracts/swap.sol\":205:256  function swap() public {... */\n      jump\t// out\n        /* \"contracts/swap.sol\":335:402  function getB() public view returns (uint256) {... */\n    tag_9:\n        /* \"contracts/swap.sol\":372:379  uint256 */\n      0x00\n        /* \"contracts/swap.sol\":395:396  b */\n      sload(0x01)\n        /* \"contracts/swap.sol\":388:396  return b */\n      swap1\n      pop\n        /* \"contracts/swap.sol\":335:402  function getB() public view returns (uint256) {... */\n      swap1\n      jump\t// out\n        /* \"contracts/swap.sol\":262:329  function getA() public view returns (uint256) {... */\n    tag_13:\n        /* \"contracts/swap.sol\":299:306  uint256 */\n      0x00\n        /* \"contracts/swap.sol\":322:323  a */\n      dup1\n      sload\n        /* \"contracts/swap.sol\":315:323  return a */\n      swap1\n      pop\n        /* \"contracts/swap.sol\":262:329  function getA() public view returns (uint256) {... */\n      swap1\n      jump\t// out\n        /* \"#utility.yul\":7:84   */\n    tag_18:\n        /* \"#utility.yul\":44:51   */\n      0x00\n        /* \"#utility.yul\":73:78   */\n      dup2\n        /* \"#utility.yul\":62:78   */\n      swap1\n      pop\n        /* \"#utility.yul\":7:84   */\n      swap2\n      swap1\n      pop\n      jump\t// out\n        /* \"#utility.yul\":90:208   */\n    tag_19:\n        /* \"#utility.yul\":177:201   */\n      tag_23\n        /* \"#utility.yul\":195:200   */\n      dup2\n        /* \"#utility.yul\":177:201   */\n      tag_18\n      jump\t// in\n    tag_23:\n        /* \"#utility.yul\":172:175   */\n      dup3\n        /* \"#utility.yul\":165:202   */\n      mstore\n        /* \"#utility.yul\":90:208   */\n      pop\n      pop\n      jump\t// out\n        /* \"#utility.yul\":214:436   */\n    tag_11:\n        /* \"#utility.yul\":307:311   */\n      0x00\n        /* \"#utility.yul\":345:347   */\n      0x20\n        /* \"#utility.yul\":334:343   */\n      dup3\n        /* \"#utility.yul\":330:348   */\n      add\n        /* \"#utility.yul\":322:348   */\n      swap1\n      pop\n        /* \"#utility.yul\":358:429   */\n      tag_25\n        /* \"#utility.yul\":426:427   */\n      0x00\n        /* \"#utility.yul\":415:424   */\n      dup4\n        /* \"#utility.yul\":411:428   */\n      add\n        /* \"#utility.yul\":402:408   */\n      dup5\n        /* \"#utility.yul\":358:429   */\n      tag_19\n      jump\t// in\n    tag_25:\n        /* \"#utility.yul\":214:436   */\n      swap3\n      swap2\n      pop\n      pop\n      jump\t// out\n\n    auxdata: 0xa2646970667358221220a03b7b9587ad5386ad43c0be265613d65bb78097ac44917a3f166cb025fea2a964736f6c63430008140033\n}\n",
				"bytecode": {
					"linkReferences": {},
					"object": "608060405260035f556004600155348015610018575f80fd5b50610106806100265f395ff3fe6080604052348015600e575f80fd5b5060043610603a575f3560e01c80638119c06514603e578063a1c51915146046578063d46300fd146060575b5f80fd5b6044607a565b005b604c6092565b6040516057919060b9565b60405180910390f35b6066609b565b6040516071919060b9565b60405180910390f35b6001545f545f8060015f849190505583919050555050565b5f600154905090565b5f8054905090565b5f819050919050565b60b38160a3565b82525050565b5f60208201905060ca5f83018460ac565b9291505056fea2646970667358221220a03b7b9587ad5386ad43c0be265613d65bb78097ac44917a3f166cb025fea2a964736f6c63430008140033",
					"opcodes": "PUSH1 0x80 PUSH1 0x40 MSTORE PUSH1 0x3 PUSH0 SSTORE PUSH1 0x4 PUSH1 0x1 SSTORE CALLVALUE DUP1 ISZERO PUSH2 0x18 JUMPI PUSH0 DUP1 REVERT JUMPDEST POP PUSH2 0x106 DUP1 PUSH2 0x26 PUSH0 CODECOPY PUSH0 RETURN INVALID PUSH1 0x80 PUSH1 0x40 MSTORE CALLVALUE DUP1 ISZERO PUSH1 0xE JUMPI PUSH0 DUP1 REVERT JUMPDEST POP PUSH1 0x4 CALLDATASIZE LT PUSH1 0x3A JUMPI PUSH0 CALLDATALOAD PUSH1 0xE0 SHR DUP1 PUSH4 0x8119C065 EQ PUSH1 0x3E JUMPI DUP1 PUSH4 0xA1C51915 EQ PUSH1 0x46 JUMPI DUP1 PUSH4 0xD46300FD EQ PUSH1 0x60 JUMPI JUMPDEST PUSH0 DUP1 REVERT JUMPDEST PUSH1 0x44 PUSH1 0x7A JUMP JUMPDEST STOP JUMPDEST PUSH1 0x4C PUSH1 0x92 JUMP JUMPDEST PUSH1 0x40 MLOAD PUSH1 0x57 SWAP2 SWAP1 PUSH1 0xB9 JUMP JUMPDEST PUSH1 0x40 MLOAD DUP1 SWAP2 SUB SWAP1 RETURN JUMPDEST PUSH1 0x66 PUSH1 0x9B JUMP JUMPDEST PUSH1 0x40 MLOAD PUSH1 0x71 SWAP2 SWAP1 PUSH1 0xB9 JUMP JUMPDEST PUSH1 0x40 MLOAD DUP1 SWAP2 SUB SWAP1 RETURN JUMPDEST PUSH1 0x1 SLOAD PUSH0 SLOAD PUSH0 DUP1 PUSH1 0x1 PUSH0 DUP5 SWAP2 SWAP1 POP SSTORE DUP4 SWAP2 SWAP1 POP SSTORE POP POP JUMP JUMPDEST PUSH0 PUSH1 0x1 SLOAD SWAP1 POP SWAP1 JUMP JUMPDEST PUSH0 DUP1 SLOAD SWAP1 POP SWAP1 JUMP JUMPDEST PUSH0 DUP2 SWAP1 POP SWAP2 SWAP1 POP JUMP JUMPDEST PUSH1 0xB3 DUP2 PUSH1 0xA3 JUMP JUMPDEST DUP3 MSTORE POP POP JUMP JUMPDEST PUSH0 PUSH1 0x20 DUP3 ADD SWAP1 POP PUSH1 0xCA PUSH0 DUP4 ADD DUP5 PUSH1 0xAC JUMP JUMPDEST SWAP3 SWAP2 POP POP JUMP INVALID LOG2 PUSH5 0x6970667358 0x22 SLT KECCAK256 LOG0 EXTCODESIZE PUSH28 0x9587AD5386AD43C0BE265613D65BB78097AC44917A3F166CB025FEA2 0xA9 PUSH5 0x736F6C6343 STOP ADDMOD EQ STOP CALLER "
				},
				"gasEstimates": {
					"creation": {
						"codeDepositCost": "52400",
						"executionCost": "44314",
						"totalCost": "96714"
					},
					"external": {
						"getA()": "2454",
						"getB()": "2432",
						"swap()": "48562"
					}
				},
				"methodIdentifiers": {
					"getA()": "d46300fd",
					"getB()": "a1c51915",
					"swap()": "8119c065"
				}
			},
			"storageLayout": {
				"storage": [
					{
						"astId": 4,
						"contract": "contracts/swap.sol:Swap",
						"label": "a",
						"offset": 0,
						"slot": "0",
						"type": "t_uint256"
					},
					{
						"astId": 7,
						"contract": "contracts/swap.sol:Swap",
						"label": "b",
						"offset": 0,
						"slot": "1",
						"type": "t_uint256"
					}
				],
				"types": {
					"t_uint256": {
						"encoding": "inplace",
						"label": "uint256",
						"numberOfBytes": "32"
					}
				}
			},
			"userdoc": {
				"kind": "user",
				"methods": {},
				"version": 1
			}
		}
	}
}