{
	"data": {
		"bytecode": {
			"linkReferences": {},
			"object": "608060405234801561000f575f80fd5b506103a68061001d5f395ff3fe608060405260043610610021575f3560e01c8063b69ef8a8146100a057610061565b36610061577fbb7455e1330c1ad664613f3d998bd858bae53893f04a4eb34718b211dd87c59e33346040516100579291906101c8565b60405180910390a1005b7fbb7455e1330c1ad664613f3d998bd858bae53893f04a4eb34718b211dd87c59e33345f3660405161009694939291906102a9565b60405180910390a1005b3480156100ab575f80fd5b506100b46100ca565b6040516100c191906102fa565b60405180910390f35b5f670de0b6b3a7640000476100df9190610340565b905090565b5f82825260208201905092915050565b7f72656365697665000000000000000000000000000000000000000000000000005f82015250565b5f6101286007836100e4565b9150610133826100f4565b602082019050919050565b5f73ffffffffffffffffffffffffffffffffffffffff82169050919050565b5f6101678261013e565b9050919050565b6101778161015d565b82525050565b5f819050919050565b61018f8161017d565b82525050565b5f82825260208201905092915050565b50565b5f6101b35f83610195565b91506101be826101a5565b5f82019050919050565b5f6080820190508181035f8301526101df8161011c565b90506101ee602083018561016e565b6101fb6040830184610186565b818103606083015261020c816101a8565b90509392505050565b7f66616c6c6261636b0000000000000000000000000000000000000000000000005f82015250565b5f6102496008836100e4565b915061025482610215565b602082019050919050565b828183375f83830152505050565b5f601f19601f8301169050919050565b5f6102888385610195565b935061029583858461025f565b61029e8361026d565b840190509392505050565b5f6080820190508181035f8301526102c08161023d565b90506102cf602083018761016e565b6102dc6040830186610186565b81810360608301526102ef81848661027d565b905095945050505050565b5f60208201905061030d5f830184610186565b92915050565b7f4e487b71000000000000000000000000000000000000000000000000000000005f52601260045260245ffd5b5f61034a8261017d565b91506103558361017d565b92508261036557610364610313565b5b82820490509291505056fea26469706673582212200df1fa162bec78346da27325adc019ce8214f2e466a7e10a65b2d74778f7d2ef64736f6c63430008140033",
			"opcodes": "PUSH1 0x80 PUSH1 0x40 MSTORE CALLVALUE DUP1 ISZERO PUSH2 0xF JUMPI PUSH0 DUP1 REVERT JUMPDEST POP PUSH2 0x3A6 DUP1 PUSH2 0x1D PUSH0 CODECOPY PUSH0 RETURN INVALID PUSH1 0x80 PUSH1 0x40 MSTORE PUSH1 0x4 CALLDATASIZE LT PUSH2 0x21 JUMPI PUSH0 CALLDATALOAD PUSH1 0xE0 SHR DUP1 PUSH4 0xB69EF8A8 EQ PUSH2 0xA0 JUMPI PUSH2 0x61 JUMP JUMPDEST CALLDATASIZE PUSH2 0x61 JUMPI PUSH32 0xBB7455E1330C1AD664613F3D998BD858BAE53893F04A4EB34718B211DD87C59E CALLER CALLVALUE PUSH1 0x40 MLOAD PUSH2 0x57 SWAP3 SWAP2 SWAP1 PUSH2 0x1C8 JUMP JUMPDEST PUSH1 0x40 MLOAD DUP1 SWAP2 SUB SWAP1 LOG1 STOP JUMPDEST PUSH32 0xBB7455E1330C1AD664613F3D998BD858BAE53893F04A4EB34718B211DD87C59E CALLER CALLVALUE PUSH0 CALLDATASIZE PUSH1 0x40 MLOAD PUSH2 0x96 SWAP5 SWAP4 SWAP3 SWAP2 SWAP1 PUSH2 0x2A9 JUMP JUMPDEST PUSH1 0x40 MLOAD DUP1 SWAP2 SUB SWAP1 LOG1 STOP JUMPDEST CALLVALUE DUP1 ISZERO PUSH2 0xAB JUMPI PUSH0 DUP1 REVERT JUMPDEST POP PUSH2 0xB4 PUSH2 0xCA JUMP JUMPDEST PUSH1 0x40 MLOAD PUSH2 0xC1 SWAP2 SWAP1 PUSH2 0x2FA JUMP JUMPDEST PUSH1 0x40 MLOAD DUP1 SWAP2 SUB SWAP1 RETURN JUMPDEST PUSH0 PUSH8 0xDE0B6B3A7640000 SELFBALANCE PUSH2 0xDF SWAP2 SWAP1 PUSH2 0x340 JUMP JUMPDEST SWAP1 POP SWAP1 JUMP JUMPDEST PUSH0 DUP3 DUP3 MSTORE PUSH1 0x20 DUP3 ADD SWAP1 POP SWAP3 SWAP2 POP POP JUMP JUMPDEST PUSH32 0x7265636569766500000000000000000000000000000000000000000000000000 PUSH0 DUP3 ADD MSTORE POP JUMP JUMPDEST PUSH0 PUSH2 0x128 PUSH1 0x7 DUP4 PUSH2 0xE4 JUMP JUMPDEST SWAP2 POP PUSH2 0x133 DUP3 PUSH2 0xF4 JUMP JUMPDEST PUSH1 0x20 DUP3 ADD SWAP1 POP SWAP2 SWAP1 POP JUMP JUMPDEST PUSH0 PUSH20 0xFFFFFFFFFFFFFFFFFFFFFFFFFFFFFFFFFFFFFFFF DUP3 AND SWAP1 POP SWAP2 SWAP1 POP JUMP JUMPDEST PUSH0 PUSH2 0x167 DUP3 PUSH2 0x13E JUMP JUMPDEST SWAP1 POP SWAP2 SWAP1 POP JUMP JUMPDEST PUSH2 0x177 DUP2 PUSH2 0x15D JUMP JUMPDEST DUP3 MSTORE POP POP JUMP JUMPDEST PUSH0 DUP2 SWAP1 POP SWAP2 SWAP1 POP JUMP JUMPDEST PUSH2 0x18F DUP2 PUSH2 0x17D JUMP JUMPDEST DUP3 MSTORE POP POP JUMP JUMPDEST PUSH0 DUP3 DUP3 MSTORE PUSH1 0x20 DUP3 ADD SWAP1 POP SWAP3 SWAP2 POP POP JUMP JUMPDEST POP JUMP JUMPDEST PUSH0 PUSH2 0x1B3 PUSH0 DUP4 PUSH2 0x195 JUMP JUMPDEST SWAP2 POP PUSH2 0x1BE DUP3 PUSH2 0x1A5 JUMP JUMPDEST PUSH0 DUP3 ADD SWAP1 POP SWAP2 SWAP1 POP JUMP JUMPDEST PUSH0 PUSH1 0x80 DUP3 ADD SWAP1 POP DUP2 DUP2 SUB PUSH0 DUP4 ADD MSTORE PUSH2 0x1DF DUP2 PUSH2 0x11C JUMP JUMPDEST SWAP1 POP PUSH2 0x1EE PUSH1 0x20 DUP4 ADD DUP6 PUSH2 0x16E JUMP JUMPDEST PUSH2 0x1FB PUSH1 0x40 DUP4 ADD DUP5 PUSH2 0x186 JUMP JUMPDEST DUP2 DUP2 SUB PUSH1 0x60 DUP4 ADD MSTORE PUSH2 0x20C DUP2 PUSH2 0x1A8 JUMP JUMPDEST SWAP1 POP SWAP4 SWAP3 POP POP POP JUMP JUMPDEST PUSH32 0x66616C6C6261636B000000000000000000000000000000000000000000000000 PUSH0 DUP3 ADD MSTORE POP JUMP JUMPDEST PUSH0 PUSH2 0x249 PUSH1 0x8 DUP4 PUSH2 0xE4 JUMP JUMPDEST SWAP2 POP PUSH2 0x254 DUP3 PUSH2 0x215 JUMP JUMPDEST PUSH1 0x20 DUP3 ADD SWAP1 POP SWAP2 SWAP1 POP JUMP JUMPDEST DUP3 DUP2 DUP4 CALLDATACOPY PUSH0 DUP4 DUP4 ADD MSTORE POP POP POP JUMP JUMPDEST PUSH0 PUSH1 0x1F NOT PUSH1 0x1F DUP4 ADD AND SWAP1 POP SWAP2 SWAP1 POP JUMP JUMPDEST PUSH0 PUSH2 0x288 DUP4 DUP6 PUSH2 0x195 JUMP JUMPDEST SWAP4 POP PUSH2 0x295 DUP4 DUP6 DUP5 PUSH2 0x25F JUMP JUMPDEST PUSH2 0x29E DUP4 PUSH2 0x26D JUMP JUMPDEST DUP5 ADD SWAP1 POP SWAP4 SWAP3 POP POP POP JUMP JUMPDEST PUSH0 PUSH1 0x80 DUP3 ADD SWAP1 POP DUP2 DUP2 SUB PUSH0 DUP4 ADD MSTORE PUSH2 0x2C0 DUP2 PUSH2 0x23D JUMP JUMPDEST SWAP1 POP PUSH2 0x2CF PUSH1 0x20 DUP4 ADD DUP8 PUSH2 0x16E JUMP JUMPDEST PUSH2 0x2DC PUSH1 0x40 DUP4 ADD DUP7 PUSH2 0x186 JUMP JUMPDEST DUP2 DUP2 SUB PUSH1 0x60 DUP4 ADD MSTORE PUSH2 0x2EF DUP2 DUP5 DUP7 PUSH2 0x27D JUMP JUMPDEST SWAP1 POP SWAP6 SWAP5 POP POP POP POP POP JUMP JUMPDEST PUSH0 PUSH1 0x20 DUP3 ADD SWAP1 POP PUSH2 0x30D PUSH0 DUP4 ADD DUP5 PUSH2 0x186 JUMP JUMPDEST SWAP3 SWAP2 POP POP JUMP JUMPDEST PUSH32 0x4E487B7100000000000000000000000000000000000000000000000000000000 PUSH0 MSTORE PUSH1 0x12 PUSH1 0x4 MSTORE PUSH1 0x24 PUSH0 REVERT JUMPDEST PUSH0 PUSH2 0x34A DUP3 PUSH2 0x17D JUMP JUMPDEST SWAP2 POP PUSH2 0x355 DUP4 PUSH2 0x17D JUMP JUMPDEST SWAP3 POP DUP3 PUSH2 0x365 JUMPI PUSH2 0x364 PUSH2 0x313 JUMP JUMPDEST JUMPDEST DUP3 DUP3 DIV SWAP1 POP SWAP3 SWAP2 POP POP JUMP INVALID LOG2 PUSH5 0x6970667358 0x22 SLT KECCAK256 0xD CALL STATICCALL AND 0x2B 0xEC PUSH25 0x346DA27325ADC019CE8214F2E466A7E10A65B2D74778F7D2EF PUSH5 0x736F6C6343 STOP ADDMOD EQ STOP CALLER "
		},
		"gasEstimates": {
			"creation": {
				"codeDepositCost": "186800",
				"executionCost": "230",
				"totalCost": "187030"
			},
			"external": {
				"": "infinite",
				"balance()": "infinite"
			}
		},
		"methodIdentifiers": {
			"balance()": "b69ef8a8"
		}
	},
	"abi": [
		{
			"anonymous": false,
			"inputs": [
				{
					"indexed": false,
					"internalType": "string",
					"name": "fun",
					"type": "string"
				},
				{
					"indexed": false,
					"internalType": "address",
					"name": "add",
					"type": "address"
				},
				{
					"indexed": false,
					"internalType": "uint256",
					"name": "value",
					"type": "uint256"
				},
				{
					"indexed": false,
					"internalType": "bytes",
					"name": "data",
					"type": "bytes"
				}
			],
			"name": "log",
			"type": "event"
		},
		{
			"stateMutability": "payable",
			"type": "fallback"
		},
		{
			"inputs": [],
			"name": "balance",
			"outputs": [
				{
					"internalType": "uint256",
					"name": "",
					"type": "uint256"
				}
			],
			"stateMutability": "view",
			"type": "function"
		},
		{
			"stateMutability": "payable",
			"type": "receive"
		}
	]
}