{
	"data": {
		"bytecode": {
			"linkReferences": {},
			"object": "6080604052601960015f6101000a81548160ff021916908360ff1602179055507ffffffffffffffffffffffffffffffffffffffffffffffffffffffffffffffff660025534801561004e575f80fd5b506103278061005c5f395ff3fe608060405234801561000f575f80fd5b5060043610610060575f3560e01c806312c0dfc3146100645780631f3779981461008257806370f351fa1461008c5780638ea3b0b314610096578063a59cb107146100b2578063d412f490146100d0575b5f80fd5b61006c6100ee565b6040516100799190610181565b60405180910390f35b61008a610100565b005b610094610119565b005b6100b060048036038101906100ab91906101d1565b610152565b005b6100ba61015b565b6040516100c79190610214565b60405180910390f35b6100d8610161565b6040516100e5919061023c565b60405180910390f35b60015f9054906101000a900460ff1681565b60025f81548092919061011290610282565b9190505550565b60015f81819054906101000a900460ff1680929190610137906102c9565b91906101000a81548160ff021916908360ff16021790555050565b805f8190555050565b60025481565b5f5481565b5f60ff82169050919050565b61017b81610166565b82525050565b5f6020820190506101945f830184610172565b92915050565b5f80fd5b5f819050919050565b6101b08161019e565b81146101ba575f80fd5b50565b5f813590506101cb816101a7565b92915050565b5f602082840312156101e6576101e561019a565b5b5f6101f3848285016101bd565b91505092915050565b5f819050919050565b61020e816101fc565b82525050565b5f6020820190506102275f830184610205565b92915050565b6102368161019e565b82525050565b5f60208201905061024f5f83018461022d565b92915050565b7f4e487b71000000000000000000000000000000000000000000000000000000005f52601160045260245ffd5b5f61028c826101fc565b91507f7fffffffffffffffffffffffffffffffffffffffffffffffffffffffffffffff82036102be576102bd610255565b5b600182019050919050565b5f6102d382610166565b915060ff82036102e6576102e5610255565b5b60018201905091905056fea2646970667358221220fbaa84116587c67d28227b0b867eff3333fd11bf009343407502b5963488efa364736f6c63430008140033",
			"opcodes": "PUSH1 0x80 PUSH1 0x40 MSTORE PUSH1 0x19 PUSH1 0x1 PUSH0 PUSH2 0x100 EXP DUP2 SLOAD DUP2 PUSH1 0xFF MUL NOT AND SWAP1 DUP4 PUSH1 0xFF AND MUL OR SWAP1 SSTORE POP PUSH32 0xFFFFFFFFFFFFFFFFFFFFFFFFFFFFFFFFFFFFFFFFFFFFFFFFFFFFFFFFFFFFFFF6 PUSH1 0x2 SSTORE CALLVALUE DUP1 ISZERO PUSH2 0x4E JUMPI PUSH0 DUP1 REVERT JUMPDEST POP PUSH2 0x327 DUP1 PUSH2 0x5C PUSH0 CODECOPY PUSH0 RETURN INVALID PUSH1 0x80 PUSH1 0x40 MSTORE CALLVALUE DUP1 ISZERO PUSH2 0xF JUMPI PUSH0 DUP1 REVERT JUMPDEST POP PUSH1 0x4 CALLDATASIZE LT PUSH2 0x60 JUMPI PUSH0 CALLDATALOAD PUSH1 0xE0 SHR DUP1 PUSH4 0x12C0DFC3 EQ PUSH2 0x64 JUMPI DUP1 PUSH4 0x1F377998 EQ PUSH2 0x82 JUMPI DUP1 PUSH4 0x70F351FA EQ PUSH2 0x8C JUMPI DUP1 PUSH4 0x8EA3B0B3 EQ PUSH2 0x96 JUMPI DUP1 PUSH4 0xA59CB107 EQ PUSH2 0xB2 JUMPI DUP1 PUSH4 0xD412F490 EQ PUSH2 0xD0 JUMPI JUMPDEST PUSH0 DUP1 REVERT JUMPDEST PUSH2 0x6C PUSH2 0xEE JUMP JUMPDEST PUSH1 0x40 MLOAD PUSH2 0x79 SWAP2 SWAP1 PUSH2 0x181 JUMP JUMPDEST PUSH1 0x40 MLOAD DUP1 SWAP2 SUB SWAP1 RETURN JUMPDEST PUSH2 0x8A PUSH2 0x100 JUMP JUMPDEST STOP JUMPDEST PUSH2 0x94 PUSH2 0x119 JUMP JUMPDEST STOP JUMPDEST PUSH2 0xB0 PUSH1 0x4 DUP1 CALLDATASIZE SUB DUP2 ADD SWAP1 PUSH2 0xAB SWAP2 SWAP1 PUSH2 0x1D1 JUMP JUMPDEST PUSH2 0x152 JUMP JUMPDEST STOP JUMPDEST PUSH2 0xBA PUSH2 0x15B JUMP JUMPDEST PUSH1 0x40 MLOAD PUSH2 0xC7 SWAP2 SWAP1 PUSH2 0x214 JUMP JUMPDEST PUSH1 0x40 MLOAD DUP1 SWAP2 SUB SWAP1 RETURN JUMPDEST PUSH2 0xD8 PUSH2 0x161 JUMP JUMPDEST PUSH1 0x40 MLOAD PUSH2 0xE5 SWAP2 SWAP1 PUSH2 0x23C JUMP JUMPDEST PUSH1 0x40 MLOAD DUP1 SWAP2 SUB SWAP1 RETURN JUMPDEST PUSH1 0x1 PUSH0 SWAP1 SLOAD SWAP1 PUSH2 0x100 EXP SWAP1 DIV PUSH1 0xFF AND DUP2 JUMP JUMPDEST PUSH1 0x2 PUSH0 DUP2 SLOAD DUP1 SWAP3 SWAP2 SWAP1 PUSH2 0x112 SWAP1 PUSH2 0x282 JUMP JUMPDEST SWAP2 SWAP1 POP SSTORE POP JUMP JUMPDEST PUSH1 0x1 PUSH0 DUP2 DUP2 SWAP1 SLOAD SWAP1 PUSH2 0x100 EXP SWAP1 DIV PUSH1 0xFF AND DUP1 SWAP3 SWAP2 SWAP1 PUSH2 0x137 SWAP1 PUSH2 0x2C9 JUMP JUMPDEST SWAP2 SWAP1 PUSH2 0x100 EXP DUP2 SLOAD DUP2 PUSH1 0xFF MUL NOT AND SWAP1 DUP4 PUSH1 0xFF AND MUL OR SWAP1 SSTORE POP POP JUMP JUMPDEST DUP1 PUSH0 DUP2 SWAP1 SSTORE POP POP JUMP JUMPDEST PUSH1 0x2 SLOAD DUP2 JUMP JUMPDEST PUSH0 SLOAD DUP2 JUMP JUMPDEST PUSH0 PUSH1 0xFF DUP3 AND SWAP1 POP SWAP2 SWAP1 POP JUMP JUMPDEST PUSH2 0x17B DUP2 PUSH2 0x166 JUMP JUMPDEST DUP3 MSTORE POP POP JUMP JUMPDEST PUSH0 PUSH1 0x20 DUP3 ADD SWAP1 POP PUSH2 0x194 PUSH0 DUP4 ADD DUP5 PUSH2 0x172 JUMP JUMPDEST SWAP3 SWAP2 POP POP JUMP JUMPDEST PUSH0 DUP1 REVERT JUMPDEST PUSH0 DUP2 SWAP1 POP SWAP2 SWAP1 POP JUMP JUMPDEST PUSH2 0x1B0 DUP2 PUSH2 0x19E JUMP JUMPDEST DUP2 EQ PUSH2 0x1BA JUMPI PUSH0 DUP1 REVERT JUMPDEST POP JUMP JUMPDEST PUSH0 DUP2 CALLDATALOAD SWAP1 POP PUSH2 0x1CB DUP2 PUSH2 0x1A7 JUMP JUMPDEST SWAP3 SWAP2 POP POP JUMP JUMPDEST PUSH0 PUSH1 0x20 DUP3 DUP5 SUB SLT ISZERO PUSH2 0x1E6 JUMPI PUSH2 0x1E5 PUSH2 0x19A JUMP JUMPDEST JUMPDEST PUSH0 PUSH2 0x1F3 DUP5 DUP3 DUP6 ADD PUSH2 0x1BD JUMP JUMPDEST SWAP2 POP POP SWAP3 SWAP2 POP POP JUMP JUMPDEST PUSH0 DUP2 SWAP1 POP SWAP2 SWAP1 POP JUMP JUMPDEST PUSH2 0x20E DUP2 PUSH2 0x1FC JUMP JUMPDEST DUP3 MSTORE POP POP JUMP JUMPDEST PUSH0 PUSH1 0x20 DUP3 ADD SWAP1 POP PUSH2 0x227 PUSH0 DUP4 ADD DUP5 PUSH2 0x205 JUMP JUMPDEST SWAP3 SWAP2 POP POP JUMP JUMPDEST PUSH2 0x236 DUP2 PUSH2 0x19E JUMP JUMPDEST DUP3 MSTORE POP POP JUMP JUMPDEST PUSH0 PUSH1 0x20 DUP3 ADD SWAP1 POP PUSH2 0x24F PUSH0 DUP4 ADD DUP5 PUSH2 0x22D JUMP JUMPDEST SWAP3 SWAP2 POP POP JUMP JUMPDEST PUSH32 0x4E487B7100000000000000000000000000000000000000000000000000000000 PUSH0 MSTORE PUSH1 0x11 PUSH1 0x4 MSTORE PUSH1 0x24 PUSH0 REVERT JUMPDEST PUSH0 PUSH2 0x28C DUP3 PUSH2 0x1FC JUMP JUMPDEST SWAP2 POP PUSH32 0x7FFFFFFFFFFFFFFFFFFFFFFFFFFFFFFFFFFFFFFFFFFFFFFFFFFFFFFFFFFFFFFF DUP3 SUB PUSH2 0x2BE JUMPI PUSH2 0x2BD PUSH2 0x255 JUMP JUMPDEST JUMPDEST PUSH1 0x1 DUP3 ADD SWAP1 POP SWAP2 SWAP1 POP JUMP JUMPDEST PUSH0 PUSH2 0x2D3 DUP3 PUSH2 0x166 JUMP JUMPDEST SWAP2 POP PUSH1 0xFF DUP3 SUB PUSH2 0x2E6 JUMPI PUSH2 0x2E5 PUSH2 0x255 JUMP JUMPDEST JUMPDEST PUSH1 0x1 DUP3 ADD SWAP1 POP SWAP2 SWAP1 POP JUMP INVALID LOG2 PUSH5 0x6970667358 0x22 SLT KECCAK256 0xFB 0xAA DUP5 GT PUSH6 0x87C67D28227B SIGNEXTEND DUP7 PUSH31 0xFF3333FD11BF009343407502B5963488EFA364736F6C634300081400330000 "
		},
		"gasEstimates": {
			"creation": {
				"codeDepositCost": "161400",
				"executionCost": "46578",
				"totalCost": "207978"
			},
			"external": {
				"incrementint()": "24497",
				"incremnetuint8()": "26717",
				"myint()": "2491",
				"myuint()": "2512",
				"myuint8()": "2444",
				"setmyunit(uint256)": "22558"
			}
		},
		"methodIdentifiers": {
			"incrementint()": "1f377998",
			"incremnetuint8()": "70f351fa",
			"myint()": "a59cb107",
			"myuint()": "d412f490",
			"myuint8()": "12c0dfc3",
			"setmyunit(uint256)": "8ea3b0b3"
		}
	},
	"abi": [
		{
			"inputs": [],
			"name": "incrementint",
			"outputs": [],
			"stateMutability": "nonpayable",
			"type": "function"
		},
		{
			"inputs": [],
			"name": "incremnetuint8",
			"outputs": [],
			"stateMutability": "nonpayable",
			"type": "function"
		},
		{
			"inputs": [],
			"name": "myint",
			"outputs": [
				{
					"internalType": "int256",
					"name": "",
					"type": "int256"
				}
			],
			"stateMutability": "view",
			"type": "function"
		},
		{
			"inputs": [],
			"name": "myuint",
			"outputs": [
				{
					"internalType": "uint256",
					"name": "",
					"type": "uint256"
				}
			],
			"stateMutability": "view",
			"type": "function"
		},
		{
			"inputs": [],
			"name": "myuint8",
			"outputs": [
				{
					"internalType": "uint8",
					"name": "",
					"type": "uint8"
				}
			],
			"stateMutability": "view",
			"type": "function"
		},
		{
			"inputs": [
				{
					"internalType": "uint256",
					"name": "_myunit",
					"type": "uint256"
				}
			],
			"name": "setmyunit",
			"outputs": [],
			"stateMutability": "nonpayable",
			"type": "function"
		}
	]
}